{
  "contractName": "LizzardV2TestRouter02",
  "abi": [
    {
      "inputs": [
        {
          "internalType": "address",
          "name": "_factory",
          "type": "address"
        },
        {
          "internalType": "address",
          "name": "_WETH",
          "type": "address"
        }
      ],
      "stateMutability": "nonpayable",
      "type": "constructor"
    },
    {
      "inputs": [],
      "name": "WETH",
      "outputs": [
        {
          "internalType": "address",
          "name": "",
          "type": "address"
        }
      ],
      "stateMutability": "view",
      "type": "function"
    },
    {
      "inputs": [],
      "name": "factory",
      "outputs": [
        {
          "internalType": "address",
          "name": "",
          "type": "address"
        }
      ],
      "stateMutability": "view",
      "type": "function"
    },
    {
      "stateMutability": "payable",
      "type": "receive"
    },
    {
      "inputs": [
        {
          "internalType": "address",
          "name": "tokenA",
          "type": "address"
        },
        {
          "internalType": "address",
          "name": "tokenB",
          "type": "address"
        },
        {
          "internalType": "uint256",
          "name": "amountADesired",
          "type": "uint256"
        },
        {
          "internalType": "uint256",
          "name": "amountBDesired",
          "type": "uint256"
        },
        {
          "internalType": "uint256",
          "name": "amountAMin",
          "type": "uint256"
        },
        {
          "internalType": "uint256",
          "name": "amountBMin",
          "type": "uint256"
        },
        {
          "internalType": "address",
          "name": "to",
          "type": "address"
        },
        {
          "internalType": "uint256",
          "name": "deadline",
          "type": "uint256"
        }
      ],
      "name": "addLiquidity",
      "outputs": [
        {
          "internalType": "uint256",
          "name": "amountA",
          "type": "uint256"
        },
        {
          "internalType": "uint256",
          "name": "amountB",
          "type": "uint256"
        },
        {
          "internalType": "uint256",
          "name": "liquidity",
          "type": "uint256"
        }
      ],
      "stateMutability": "nonpayable",
      "type": "function"
    },
    {
      "inputs": [
        {
          "internalType": "address",
          "name": "token",
          "type": "address"
        },
        {
          "internalType": "uint256",
          "name": "amountTokenDesired",
          "type": "uint256"
        },
        {
          "internalType": "uint256",
          "name": "amountTokenMin",
          "type": "uint256"
        },
        {
          "internalType": "uint256",
          "name": "amountETHMin",
          "type": "uint256"
        },
        {
          "internalType": "address",
          "name": "to",
          "type": "address"
        },
        {
          "internalType": "uint256",
          "name": "deadline",
          "type": "uint256"
        }
      ],
      "name": "addLiquidityETH",
      "outputs": [
        {
          "internalType": "uint256",
          "name": "amountToken",
          "type": "uint256"
        },
        {
          "internalType": "uint256",
          "name": "amountETH",
          "type": "uint256"
        },
        {
          "internalType": "uint256",
          "name": "liquidity",
          "type": "uint256"
        }
      ],
      "stateMutability": "payable",
      "type": "function"
    },
    {
      "inputs": [
        {
          "internalType": "address",
          "name": "tokenA",
          "type": "address"
        },
        {
          "internalType": "address",
          "name": "tokenB",
          "type": "address"
        },
        {
          "internalType": "uint256",
          "name": "liquidity",
          "type": "uint256"
        },
        {
          "internalType": "uint256",
          "name": "amountAMin",
          "type": "uint256"
        },
        {
          "internalType": "uint256",
          "name": "amountBMin",
          "type": "uint256"
        },
        {
          "internalType": "address",
          "name": "to",
          "type": "address"
        },
        {
          "internalType": "uint256",
          "name": "deadline",
          "type": "uint256"
        }
      ],
      "name": "removeLiquidity",
      "outputs": [
        {
          "internalType": "uint256",
          "name": "amountA",
          "type": "uint256"
        },
        {
          "internalType": "uint256",
          "name": "amountB",
          "type": "uint256"
        }
      ],
      "stateMutability": "nonpayable",
      "type": "function"
    },
    {
      "inputs": [
        {
          "internalType": "address",
          "name": "token",
          "type": "address"
        },
        {
          "internalType": "uint256",
          "name": "liquidity",
          "type": "uint256"
        },
        {
          "internalType": "uint256",
          "name": "amountTokenMin",
          "type": "uint256"
        },
        {
          "internalType": "uint256",
          "name": "amountETHMin",
          "type": "uint256"
        },
        {
          "internalType": "address",
          "name": "to",
          "type": "address"
        },
        {
          "internalType": "uint256",
          "name": "deadline",
          "type": "uint256"
        }
      ],
      "name": "removeLiquidityETH",
      "outputs": [
        {
          "internalType": "uint256",
          "name": "amountToken",
          "type": "uint256"
        },
        {
          "internalType": "uint256",
          "name": "amountETH",
          "type": "uint256"
        }
      ],
      "stateMutability": "nonpayable",
      "type": "function"
    },
    {
      "inputs": [
        {
          "internalType": "address",
          "name": "tokenA",
          "type": "address"
        },
        {
          "internalType": "address",
          "name": "tokenB",
          "type": "address"
        },
        {
          "internalType": "uint256",
          "name": "liquidity",
          "type": "uint256"
        },
        {
          "internalType": "uint256",
          "name": "amountAMin",
          "type": "uint256"
        },
        {
          "internalType": "uint256",
          "name": "amountBMin",
          "type": "uint256"
        },
        {
          "internalType": "address",
          "name": "to",
          "type": "address"
        },
        {
          "internalType": "uint256",
          "name": "deadline",
          "type": "uint256"
        },
        {
          "internalType": "bool",
          "name": "approveMax",
          "type": "bool"
        },
        {
          "internalType": "uint8",
          "name": "v",
          "type": "uint8"
        },
        {
          "internalType": "bytes32",
          "name": "r",
          "type": "bytes32"
        },
        {
          "internalType": "bytes32",
          "name": "s",
          "type": "bytes32"
        }
      ],
      "name": "removeLiquidityWithPermit",
      "outputs": [
        {
          "internalType": "uint256",
          "name": "amountA",
          "type": "uint256"
        },
        {
          "internalType": "uint256",
          "name": "amountB",
          "type": "uint256"
        }
      ],
      "stateMutability": "nonpayable",
      "type": "function"
    },
    {
      "inputs": [
        {
          "internalType": "address",
          "name": "token",
          "type": "address"
        },
        {
          "internalType": "uint256",
          "name": "liquidity",
          "type": "uint256"
        },
        {
          "internalType": "uint256",
          "name": "amountTokenMin",
          "type": "uint256"
        },
        {
          "internalType": "uint256",
          "name": "amountETHMin",
          "type": "uint256"
        },
        {
          "internalType": "address",
          "name": "to",
          "type": "address"
        },
        {
          "internalType": "uint256",
          "name": "deadline",
          "type": "uint256"
        },
        {
          "internalType": "bool",
          "name": "approveMax",
          "type": "bool"
        },
        {
          "internalType": "uint8",
          "name": "v",
          "type": "uint8"
        },
        {
          "internalType": "bytes32",
          "name": "r",
          "type": "bytes32"
        },
        {
          "internalType": "bytes32",
          "name": "s",
          "type": "bytes32"
        }
      ],
      "name": "removeLiquidityETHWithPermit",
      "outputs": [
        {
          "internalType": "uint256",
          "name": "amountToken",
          "type": "uint256"
        },
        {
          "internalType": "uint256",
          "name": "amountETH",
          "type": "uint256"
        }
      ],
      "stateMutability": "nonpayable",
      "type": "function"
    },
    {
      "inputs": [
        {
          "internalType": "address",
          "name": "token",
          "type": "address"
        },
        {
          "internalType": "uint256",
          "name": "liquidity",
          "type": "uint256"
        },
        {
          "internalType": "uint256",
          "name": "amountTokenMin",
          "type": "uint256"
        },
        {
          "internalType": "uint256",
          "name": "amountETHMin",
          "type": "uint256"
        },
        {
          "internalType": "address",
          "name": "to",
          "type": "address"
        },
        {
          "internalType": "uint256",
          "name": "deadline",
          "type": "uint256"
        }
      ],
      "name": "removeLiquidityETHSupportingFeeOnTransferTokens",
      "outputs": [
        {
          "internalType": "uint256",
          "name": "amountETH",
          "type": "uint256"
        }
      ],
      "stateMutability": "nonpayable",
      "type": "function"
    },
    {
      "inputs": [
        {
          "internalType": "address",
          "name": "token",
          "type": "address"
        },
        {
          "internalType": "uint256",
          "name": "liquidity",
          "type": "uint256"
        },
        {
          "internalType": "uint256",
          "name": "amountTokenMin",
          "type": "uint256"
        },
        {
          "internalType": "uint256",
          "name": "amountETHMin",
          "type": "uint256"
        },
        {
          "internalType": "address",
          "name": "to",
          "type": "address"
        },
        {
          "internalType": "uint256",
          "name": "deadline",
          "type": "uint256"
        },
        {
          "internalType": "bool",
          "name": "approveMax",
          "type": "bool"
        },
        {
          "internalType": "uint8",
          "name": "v",
          "type": "uint8"
        },
        {
          "internalType": "bytes32",
          "name": "r",
          "type": "bytes32"
        },
        {
          "internalType": "bytes32",
          "name": "s",
          "type": "bytes32"
        }
      ],
      "name": "removeLiquidityETHWithPermitSupportingFeeOnTransferTokens",
      "outputs": [
        {
          "internalType": "uint256",
          "name": "amountETH",
          "type": "uint256"
        }
      ],
      "stateMutability": "nonpayable",
      "type": "function"
    },
    {
      "inputs": [
        {
          "internalType": "uint256",
          "name": "amountIn",
          "type": "uint256"
        },
        {
          "internalType": "uint256",
          "name": "amountOutMin",
          "type": "uint256"
        },
        {
          "internalType": "address[]",
          "name": "path",
          "type": "address[]"
        },
        {
          "internalType": "address",
          "name": "to",
          "type": "address"
        },
        {
          "internalType": "uint256",
          "name": "deadline",
          "type": "uint256"
        }
      ],
      "name": "swapExactTokensForTokens",
      "outputs": [
        {
          "internalType": "uint256[]",
          "name": "amounts",
          "type": "uint256[]"
        }
      ],
      "stateMutability": "nonpayable",
      "type": "function"
    },
    {
      "inputs": [
        {
          "internalType": "uint256",
          "name": "amountOut",
          "type": "uint256"
        },
        {
          "internalType": "uint256",
          "name": "amountInMax",
          "type": "uint256"
        },
        {
          "internalType": "address[]",
          "name": "path",
          "type": "address[]"
        },
        {
          "internalType": "address",
          "name": "to",
          "type": "address"
        },
        {
          "internalType": "uint256",
          "name": "deadline",
          "type": "uint256"
        }
      ],
      "name": "swapTokensForExactTokens",
      "outputs": [
        {
          "internalType": "uint256[]",
          "name": "amounts",
          "type": "uint256[]"
        }
      ],
      "stateMutability": "nonpayable",
      "type": "function"
    },
    {
      "inputs": [
        {
          "internalType": "uint256",
          "name": "amountOutMin",
          "type": "uint256"
        },
        {
          "internalType": "address[]",
          "name": "path",
          "type": "address[]"
        },
        {
          "internalType": "address",
          "name": "to",
          "type": "address"
        },
        {
          "internalType": "uint256",
          "name": "deadline",
          "type": "uint256"
        }
      ],
      "name": "swapExactETHForTokens",
      "outputs": [
        {
          "internalType": "uint256[]",
          "name": "amounts",
          "type": "uint256[]"
        }
      ],
      "stateMutability": "payable",
      "type": "function"
    },
    {
      "inputs": [
        {
          "internalType": "uint256",
          "name": "amountOut",
          "type": "uint256"
        },
        {
          "internalType": "uint256",
          "name": "amountInMax",
          "type": "uint256"
        },
        {
          "internalType": "address[]",
          "name": "path",
          "type": "address[]"
        },
        {
          "internalType": "address",
          "name": "to",
          "type": "address"
        },
        {
          "internalType": "uint256",
          "name": "deadline",
          "type": "uint256"
        }
      ],
      "name": "swapTokensForExactETH",
      "outputs": [
        {
          "internalType": "uint256[]",
          "name": "amounts",
          "type": "uint256[]"
        }
      ],
      "stateMutability": "nonpayable",
      "type": "function"
    },
    {
      "inputs": [
        {
          "internalType": "uint256",
          "name": "amountIn",
          "type": "uint256"
        },
        {
          "internalType": "uint256",
          "name": "amountOutMin",
          "type": "uint256"
        },
        {
          "internalType": "address[]",
          "name": "path",
          "type": "address[]"
        },
        {
          "internalType": "address",
          "name": "to",
          "type": "address"
        },
        {
          "internalType": "uint256",
          "name": "deadline",
          "type": "uint256"
        }
      ],
      "name": "swapExactTokensForETH",
      "outputs": [
        {
          "internalType": "uint256[]",
          "name": "amounts",
          "type": "uint256[]"
        }
      ],
      "stateMutability": "nonpayable",
      "type": "function"
    },
    {
      "inputs": [
        {
          "internalType": "uint256",
          "name": "amountOut",
          "type": "uint256"
        },
        {
          "internalType": "address[]",
          "name": "path",
          "type": "address[]"
        },
        {
          "internalType": "address",
          "name": "to",
          "type": "address"
        },
        {
          "internalType": "uint256",
          "name": "deadline",
          "type": "uint256"
        }
      ],
      "name": "swapETHForExactTokens",
      "outputs": [
        {
          "internalType": "uint256[]",
          "name": "amounts",
          "type": "uint256[]"
        }
      ],
      "stateMutability": "payable",
      "type": "function"
    },
    {
      "inputs": [
        {
          "internalType": "uint256",
          "name": "amountA",
          "type": "uint256"
        },
        {
          "internalType": "uint256",
          "name": "reserveA",
          "type": "uint256"
        },
        {
          "internalType": "uint256",
          "name": "reserveB",
          "type": "uint256"
        }
      ],
      "name": "quote",
      "outputs": [
        {
          "internalType": "uint256",
          "name": "amountB",
          "type": "uint256"
        }
      ],
      "stateMutability": "pure",
      "type": "function"
    },
    {
      "inputs": [
        {
          "internalType": "uint256",
          "name": "amountIn",
          "type": "uint256"
        },
        {
          "internalType": "uint256",
          "name": "reserveIn",
          "type": "uint256"
        },
        {
          "internalType": "uint256",
          "name": "reserveOut",
          "type": "uint256"
        }
      ],
      "name": "getAmountOut",
      "outputs": [
        {
          "internalType": "uint256",
          "name": "amountOut",
          "type": "uint256"
        }
      ],
      "stateMutability": "pure",
      "type": "function"
    },
    {
      "inputs": [
        {
          "internalType": "uint256",
          "name": "amountOut",
          "type": "uint256"
        },
        {
          "internalType": "uint256",
          "name": "reserveIn",
          "type": "uint256"
        },
        {
          "internalType": "uint256",
          "name": "reserveOut",
          "type": "uint256"
        }
      ],
      "name": "getAmountIn",
      "outputs": [
        {
          "internalType": "uint256",
          "name": "amountIn",
          "type": "uint256"
        }
      ],
      "stateMutability": "pure",
      "type": "function"
    },
    {
      "inputs": [
        {
          "internalType": "uint256",
          "name": "amountIn",
          "type": "uint256"
        },
        {
          "internalType": "address[]",
          "name": "path",
          "type": "address[]"
        }
      ],
      "name": "getAmountsOut",
      "outputs": [
        {
          "internalType": "uint256[]",
          "name": "amounts",
          "type": "uint256[]"
        }
      ],
      "stateMutability": "view",
      "type": "function"
    },
    {
      "inputs": [
        {
          "internalType": "uint256",
          "name": "amountOut",
          "type": "uint256"
        },
        {
          "internalType": "address[]",
          "name": "path",
          "type": "address[]"
        }
      ],
      "name": "getAmountsIn",
      "outputs": [
        {
          "internalType": "uint256[]",
          "name": "amounts",
          "type": "uint256[]"
        }
      ],
      "stateMutability": "view",
      "type": "function"
    }
  ],
  "bytecode": "0x60c060405234801561001057600080fd5b506040516200562f3803806200562f8339818101604052604081101561003557600080fd5b8101908080519060200190929190805190602001909291905050508173ffffffffffffffffffffffffffffffffffffffff1660808173ffffffffffffffffffffffffffffffffffffffff1660601b815250508073ffffffffffffffffffffffffffffffffffffffff1660a08173ffffffffffffffffffffffffffffffffffffffff1660601b81525050505060805160601c60a05160601c61545f620001d060003980610135528061131e528061135c528061148c528061174d5280611cc15280611f7f52806120755280612260528061240b52806124a052806128f452806129ab5280612a9e5280612f4252806132e05280613339528061336d52806133ee528061362e52806137d6528061386b525080611561528061166d528061182052806118585280611a515280611b5d5280611d965280611e9f5280612053528061233052806124df528061270052806128095280612bbd5280612ebf5280612ee85280612f205280613152528061331752806136fe52806138aa528061446f52806144b35280614b4c5280614c745280614d8a525061545f6000f3fe60806040526004361061012e5760003560e01c80638803dbee116100ab578063c45a01551161006f578063c45a015514610dab578063d06ca61f14610e02578063ded9382a14610f26578063e8e3370014611008578063f305d719146110ee578063fb3bdb411461119c5761018a565b80638803dbee14610a57578063ad5c464814610b70578063ad615dec14610bc7578063af2979eb14610c2a578063baa2abde14610cd75761018a565b806338ed1739116100f257806338ed1739146105e55780634a25d94a146106fe5780635b0d5984146108175780637ff36ab5146108f257806385f8c259146109f45761018a565b806302751cec1461018f578063054d50d41461024357806318cbafe5146102a65780631f00ca74146103bf5780632195995c146104e35761018a565b3661018a577f000000000000000000000000000000000000000000000000000000000000000073ffffffffffffffffffffffffffffffffffffffff163373ffffffffffffffffffffffffffffffffffffffff161461018857fe5b005b600080fd5b34801561019b57600080fd5b50610226600480360360c08110156101b257600080fd5b81019080803573ffffffffffffffffffffffffffffffffffffffff169060200190929190803590602001909291908035906020019092919080359060200190929190803573ffffffffffffffffffffffffffffffffffffffff1690602001909291908035906020019092919050505061129e565b604051808381526020018281526020019250505060405180910390f35b34801561024f57600080fd5b506102906004803603606081101561026657600080fd5b810190808035906020019092919080359060200190929190803590602001909291905050506113fb565b6040518082815260200191505060405180910390f35b3480156102b257600080fd5b50610368600480360360a08110156102c957600080fd5b810190808035906020019092919080359060200190929190803590602001906401000000008111156102fa57600080fd5b82018360208201111561030c57600080fd5b8035906020019184602083028401116401000000008311171561032e57600080fd5b9091929391929390803573ffffffffffffffffffffffffffffffffffffffff16906020019092919080359060200190929190505050611411565b6040518080602001828103825283818151815260200191508051906020019060200280838360005b838110156103ab578082015181840152602081019050610390565b505050509050019250505060405180910390f35b3480156103cb57600080fd5b5061048c600480360360408110156103e257600080fd5b81019080803590602001909291908035906020019064010000000081111561040957600080fd5b82018360208201111561041b57600080fd5b8035906020019184602083028401116401000000008311171561043d57600080fd5b919080806020026020016040519081016040528093929190818152602001838360200280828437600081840152601f19601f820116905080830192505050505050509192919290505050611819565b6040518080602001828103825283818151815260200191508051906020019060200280838360005b838110156104cf5780820151818401526020810190506104b4565b505050509050019250505060405180910390f35b3480156104ef57600080fd5b506105c8600480360361016081101561050757600080fd5b81019080803573ffffffffffffffffffffffffffffffffffffffff169060200190929190803573ffffffffffffffffffffffffffffffffffffffff169060200190929190803590602001909291908035906020019092919080359060200190929190803573ffffffffffffffffffffffffffffffffffffffff16906020019092919080359060200190929190803515159060200190929190803560ff169060200190929190803590602001909291908035906020019092919050505061184e565b604051808381526020018281526020019250505060405180910390f35b3480156105f157600080fd5b506106a7600480360360a081101561060857600080fd5b8101908080359060200190929190803590602001909291908035906020019064010000000081111561063957600080fd5b82018360208201111561064b57600080fd5b8035906020019184602083028401116401000000008311171561066d57600080fd5b9091929391929390803573ffffffffffffffffffffffffffffffffffffffff169060200190929190803590602001909291905050506119d3565b6040518080602001828103825283818151815260200191508051906020019060200280838360005b838110156106ea5780820151818401526020810190506106cf565b505050509050019250505060405180910390f35b34801561070a57600080fd5b506107c0600480360360a081101561072157600080fd5b8101908080359060200190929190803590602001909291908035906020019064010000000081111561075257600080fd5b82018360208201111561076457600080fd5b8035906020019184602083028401116401000000008311171561078657600080fd5b9091929391929390803573ffffffffffffffffffffffffffffffffffffffff16906020019092919080359060200190929190505050611c46565b6040518080602001828103825283818151815260200191508051906020019060200280838360005b838110156108035780820151818401526020810190506107e8565b505050509050019250505060405180910390f35b34801561082357600080fd5b506108dc600480360361014081101561083b57600080fd5b81019080803573ffffffffffffffffffffffffffffffffffffffff169060200190929190803590602001909291908035906020019092919080359060200190929190803573ffffffffffffffffffffffffffffffffffffffff16906020019092919080359060200190929190803515159060200190929190803560ff169060200190929190803590602001909291908035906020019092919050505061204b565b6040518082815260200191505060405180910390f35b61099d6004803603608081101561090857600080fd5b81019080803590602001909291908035906020019064010000000081111561092f57600080fd5b82018360208201111561094157600080fd5b8035906020019184602083028401116401000000008311171561096357600080fd5b9091929391929390803573ffffffffffffffffffffffffffffffffffffffff169060200190929190803590602001909291905050506121e5565b6040518080602001828103825283818151815260200191508051906020019060200280838360005b838110156109e05780820151818401526020810190506109c5565b505050509050019250505060405180910390f35b348015610a0057600080fd5b50610a4160048036036060811015610a1757600080fd5b8101908080359060200190929190803590602001909291908035906020019092919050505061266c565b6040518082815260200191505060405180910390f35b348015610a6357600080fd5b50610b19600480360360a0811015610a7a57600080fd5b81019080803590602001909291908035906020019092919080359060200190640100000000811115610aab57600080fd5b820183602082011115610abd57600080fd5b80359060200191846020830284011164010000000083111715610adf57600080fd5b9091929391929390803573ffffffffffffffffffffffffffffffffffffffff16906020019092919080359060200190929190505050612682565b6040518080602001828103825283818151815260200191508051906020019060200280838360005b83811015610b5c578082015181840152602081019050610b41565b505050509050019250505060405180910390f35b348015610b7c57600080fd5b50610b856128f2565b604051808273ffffffffffffffffffffffffffffffffffffffff1673ffffffffffffffffffffffffffffffffffffffff16815260200191505060405180910390f35b348015610bd357600080fd5b50610c1460048036036060811015610bea57600080fd5b81019080803590602001909291908035906020019092919080359060200190929190505050612916565b6040518082815260200191505060405180910390f35b348015610c3657600080fd5b50610cc1600480360360c0811015610c4d57600080fd5b81019080803573ffffffffffffffffffffffffffffffffffffffff169060200190929190803590602001909291908035906020019092919080359060200190929190803573ffffffffffffffffffffffffffffffffffffffff1690602001909291908035906020019092919050505061292c565b6040518082815260200191505060405180910390f35b348015610ce357600080fd5b50610d8e600480360360e0811015610cfa57600080fd5b81019080803573ffffffffffffffffffffffffffffffffffffffff169060200190929190803573ffffffffffffffffffffffffffffffffffffffff169060200190929190803590602001909291908035906020019092919080359060200190929190803573ffffffffffffffffffffffffffffffffffffffff16906020019092919080359060200190929190505050612b3c565b604051808381526020018281526020019250505060405180910390f35b348015610db757600080fd5b50610dc0612ebd565b604051808273ffffffffffffffffffffffffffffffffffffffff1673ffffffffffffffffffffffffffffffffffffffff16815260200191505060405180910390f35b348015610e0e57600080fd5b50610ecf60048036036040811015610e2557600080fd5b810190808035906020019092919080359060200190640100000000811115610e4c57600080fd5b820183602082011115610e5e57600080fd5b80359060200191846020830284011164010000000083111715610e8057600080fd5b919080806020026020016040519081016040528093929190818152602001838360200280828437600081840152601f19601f820116905080830192505050505050509192919290505050612ee1565b6040518080602001828103825283818151815260200191508051906020019060200280838360005b83811015610f12578082015181840152602081019050610ef7565b505050509050019250505060405180910390f35b348015610f3257600080fd5b50610feb6004803603610140811015610f4a57600080fd5b81019080803573ffffffffffffffffffffffffffffffffffffffff169060200190929190803590602001909291908035906020019092919080359060200190929190803573ffffffffffffffffffffffffffffffffffffffff16906020019092919080359060200190929190803515159060200190929190803560ff1690602001909291908035906020019092919080359060200190929190505050612f16565b604051808381526020018281526020019250505060405180910390f35b34801561101457600080fd5b506110ca600480360361010081101561102c57600080fd5b81019080803573ffffffffffffffffffffffffffffffffffffffff169060200190929190803573ffffffffffffffffffffffffffffffffffffffff16906020019092919080359060200190929190803590602001909291908035906020019092919080359060200190929190803573ffffffffffffffffffffffffffffffffffffffff169060200190929190803590602001909291905050506130b9565b60405180848152602001838152602001828152602001935050505060405180910390f35b611178600480360360c081101561110457600080fd5b81019080803573ffffffffffffffffffffffffffffffffffffffff169060200190929190803590602001909291908035906020019092919080359060200190929190803573ffffffffffffffffffffffffffffffffffffffff1690602001909291908035906020019092919050505061325e565b60405180848152602001838152602001828152602001935050505060405180910390f35b611247600480360360808110156111b257600080fd5b8101908080359060200190929190803590602001906401000000008111156111d957600080fd5b8201836020820111156111eb57600080fd5b8035906020019184602083028401116401000000008311171561120d57600080fd5b9091929391929390803573ffffffffffffffffffffffffffffffffffffffff169060200190929190803590602001909291905050506135b3565b6040518080602001828103825283818151815260200191508051906020019060200280838360005b8381101561128a57808201518184015260208101905061126f565b505050509050019250505060405180910390f35b6000808242811015611318576040517f08c379a000000000000000000000000000000000000000000000000000000000815260040180806020018281038252601c8152602001807f4c697a7a617264563254657374526f757465723a20455850495245440000000081525060200191505060405180910390fd5b611347897f00000000000000000000000000000000000000000000000000000000000000008a8a8a308a612b3c565b809350819450505061135a898685613a74565b7f000000000000000000000000000000000000000000000000000000000000000073ffffffffffffffffffffffffffffffffffffffff16632e1a7d4d836040518263ffffffff1660e01b815260040180828152602001915050600060405180830381600087803b1580156113cd57600080fd5b505af11580156113e1573d6000803e3d6000fd5b505050506113ef8583613c50565b50965096945050505050565b6000611408848484613daf565b90509392505050565b6060814281101561148a576040517f08c379a000000000000000000000000000000000000000000000000000000000815260040180806020018281038252601c8152602001807f4c697a7a617264563254657374526f757465723a20455850495245440000000081525060200191505060405180910390fd5b7f000000000000000000000000000000000000000000000000000000000000000073ffffffffffffffffffffffffffffffffffffffff168686600189899050038181106114d357fe5b9050602002013573ffffffffffffffffffffffffffffffffffffffff1673ffffffffffffffffffffffffffffffffffffffff161461155c576040517f08c379a00000000000000000000000000000000000000000000000000000000081526004018080602001828103825260218152602001806151d36021913960400191505060405180910390fd5b6115c87f000000000000000000000000000000000000000000000000000000000000000089888880806020026020016040519081016040528093929190818152602001838360200280828437600081840152601f19601f82011690508083019250505050505050613edf565b915086826001845103815181106115db57fe5b6020026020010151101561163a576040517f08c379a000000000000000000000000000000000000000000000000000000000815260040180806020018281038252602f8152602001806152fb602f913960400191505060405180910390fd5b6116ff8686600081811061164a57fe5b9050602002013573ffffffffffffffffffffffffffffffffffffffff16336116e57f00000000000000000000000000000000000000000000000000000000000000008a8a600081811061169957fe5b9050602002013573ffffffffffffffffffffffffffffffffffffffff168b8b60018181106116c357fe5b9050602002013573ffffffffffffffffffffffffffffffffffffffff1661403a565b856000815181106116f257fe5b6020026020010151614195565b61174b82878780806020026020016040519081016040528093929190818152602001838360200280828437600081840152601f19601f82011690508083019250505050505050306143a6565b7f000000000000000000000000000000000000000000000000000000000000000073ffffffffffffffffffffffffffffffffffffffff16632e1a7d4d8360018551038151811061179757fe5b60200260200101516040518263ffffffff1660e01b815260040180828152602001915050600060405180830381600087803b1580156117d557600080fd5b505af11580156117e9573d6000803e3d6000fd5b5050505061180e848360018551038151811061180157fe5b6020026020010151613c50565b509695505050505050565b60606118467f00000000000000000000000000000000000000000000000000000000000000008484614651565b905092915050565b600080600061187e7f00000000000000000000000000000000000000000000000000000000000000008f8f61403a565b905060008761188d578c6118af565b7fffffffffffffffffffffffffffffffffffffffffffffffffffffffffffffffff5b90508173ffffffffffffffffffffffffffffffffffffffff1663d505accf3330848d8c8c8c6040518863ffffffff1660e01b8152600401808873ffffffffffffffffffffffffffffffffffffffff1673ffffffffffffffffffffffffffffffffffffffff1681526020018773ffffffffffffffffffffffffffffffffffffffff1673ffffffffffffffffffffffffffffffffffffffff1681526020018681526020018581526020018460ff1660ff168152602001838152602001828152602001975050505050505050600060405180830381600087803b15801561199257600080fd5b505af11580156119a6573d6000803e3d6000fd5b505050506119b98f8f8f8f8f8f8f612b3c565b809450819550505050509b509b9950505050505050505050565b60608142811015611a4c576040517f08c379a000000000000000000000000000000000000000000000000000000000815260040180806020018281038252601c8152602001807f4c697a7a617264563254657374526f757465723a20455850495245440000000081525060200191505060405180910390fd5b611ab87f000000000000000000000000000000000000000000000000000000000000000089888880806020026020016040519081016040528093929190818152602001838360200280828437600081840152601f19601f82011690508083019250505050505050613edf565b91508682600184510381518110611acb57fe5b60200260200101511015611b2a576040517f08c379a000000000000000000000000000000000000000000000000000000000815260040180806020018281038252602f8152602001806152fb602f913960400191505060405180910390fd5b611bef86866000818110611b3a57fe5b9050602002013573ffffffffffffffffffffffffffffffffffffffff1633611bd57f00000000000000000000000000000000000000000000000000000000000000008a8a6000818110611b8957fe5b9050602002013573ffffffffffffffffffffffffffffffffffffffff168b8b6001818110611bb357fe5b9050602002013573ffffffffffffffffffffffffffffffffffffffff1661403a565b85600081518110611be257fe5b6020026020010151614195565b611c3b82878780806020026020016040519081016040528093929190818152602001838360200280828437600081840152601f19601f82011690508083019250505050505050866143a6565b509695505050505050565b60608142811015611cbf576040517f08c379a000000000000000000000000000000000000000000000000000000000815260040180806020018281038252601c8152602001807f4c697a7a617264563254657374526f757465723a20455850495245440000000081525060200191505060405180910390fd5b7f000000000000000000000000000000000000000000000000000000000000000073ffffffffffffffffffffffffffffffffffffffff16868660018989905003818110611d0857fe5b9050602002013573ffffffffffffffffffffffffffffffffffffffff1673ffffffffffffffffffffffffffffffffffffffff1614611d91576040517f08c379a00000000000000000000000000000000000000000000000000000000081526004018080602001828103825260218152602001806151d36021913960400191505060405180910390fd5b611dfd7f000000000000000000000000000000000000000000000000000000000000000089888880806020026020016040519081016040528093929190818152602001838360200280828437600081840152601f19601f82011690508083019250505050505050614651565b91508682600081518110611e0d57fe5b60200260200101511115611e6c576040517f08c379a000000000000000000000000000000000000000000000000000000000815260040180806020018281038252602b8152602001806151a8602b913960400191505060405180910390fd5b611f3186866000818110611e7c57fe5b9050602002013573ffffffffffffffffffffffffffffffffffffffff1633611f177f00000000000000000000000000000000000000000000000000000000000000008a8a6000818110611ecb57fe5b9050602002013573ffffffffffffffffffffffffffffffffffffffff168b8b6001818110611ef557fe5b9050602002013573ffffffffffffffffffffffffffffffffffffffff1661403a565b85600081518110611f2457fe5b6020026020010151614195565b611f7d82878780806020026020016040519081016040528093929190818152602001838360200280828437600081840152601f19601f82011690508083019250505050505050306143a6565b7f000000000000000000000000000000000000000000000000000000000000000073ffffffffffffffffffffffffffffffffffffffff16632e1a7d4d83600185510381518110611fc957fe5b60200260200101516040518263ffffffff1660e01b815260040180828152602001915050600060405180830381600087803b15801561200757600080fd5b505af115801561201b573d6000803e3d6000fd5b50505050612040848360018551038151811061203357fe5b6020026020010151613c50565b509695505050505050565b6000806120997f00000000000000000000000000000000000000000000000000000000000000008d7f000000000000000000000000000000000000000000000000000000000000000061403a565b90506000866120a8578b6120ca565b7fffffffffffffffffffffffffffffffffffffffffffffffffffffffffffffffff5b90508173ffffffffffffffffffffffffffffffffffffffff1663d505accf3330848c8b8b8b6040518863ffffffff1660e01b8152600401808873ffffffffffffffffffffffffffffffffffffffff1673ffffffffffffffffffffffffffffffffffffffff1681526020018773ffffffffffffffffffffffffffffffffffffffff1673ffffffffffffffffffffffffffffffffffffffff1681526020018681526020018581526020018460ff1660ff168152602001838152602001828152602001975050505050505050600060405180830381600087803b1580156121ad57600080fd5b505af11580156121c1573d6000803e3d6000fd5b505050506121d38d8d8d8d8d8d61292c565b925050509a9950505050505050505050565b6060814281101561225e576040517f08c379a000000000000000000000000000000000000000000000000000000000815260040180806020018281038252601c8152602001807f4c697a7a617264563254657374526f757465723a20455850495245440000000081525060200191505060405180910390fd5b7f000000000000000000000000000000000000000000000000000000000000000073ffffffffffffffffffffffffffffffffffffffff16868660008181106122a257fe5b9050602002013573ffffffffffffffffffffffffffffffffffffffff1673ffffffffffffffffffffffffffffffffffffffff161461232b576040517f08c379a00000000000000000000000000000000000000000000000000000000081526004018080602001828103825260218152602001806151d36021913960400191505060405180910390fd5b6123977f000000000000000000000000000000000000000000000000000000000000000034888880806020026020016040519081016040528093929190818152602001838360200280828437600081840152601f19601f82011690508083019250505050505050613edf565b915086826001845103815181106123aa57fe5b60200260200101511015612409576040517f08c379a000000000000000000000000000000000000000000000000000000000815260040180806020018281038252602f8152602001806152fb602f913960400191505060405180910390fd5b7f000000000000000000000000000000000000000000000000000000000000000073ffffffffffffffffffffffffffffffffffffffff1663d0e30db08360008151811061245257fe5b60200260200101516040518263ffffffff1660e01b81526004016000604051808303818588803b15801561248557600080fd5b505af1158015612499573d6000803e3d6000fd5b50505050507f000000000000000000000000000000000000000000000000000000000000000073ffffffffffffffffffffffffffffffffffffffff1663a9059cbb6125577f00000000000000000000000000000000000000000000000000000000000000008989600081811061250b57fe5b9050602002013573ffffffffffffffffffffffffffffffffffffffff168a8a600181811061253557fe5b9050602002013573ffffffffffffffffffffffffffffffffffffffff1661403a565b8460008151811061256457fe5b60200260200101516040518363ffffffff1660e01b8152600401808373ffffffffffffffffffffffffffffffffffffffff1673ffffffffffffffffffffffffffffffffffffffff16815260200182815260200192505050602060405180830381600087803b1580156125d557600080fd5b505af11580156125e9573d6000803e3d6000fd5b505050506040513d60208110156125ff57600080fd5b810190808051906020019092919050505061261657fe5b61266282878780806020026020016040519081016040528093929190818152602001838360200280828437600081840152601f19601f82011690508083019250505050505050866143a6565b5095945050505050565b60006126798484846147b4565b90509392505050565b606081428110156126fb576040517f08c379a000000000000000000000000000000000000000000000000000000000815260040180806020018281038252601c8152602001807f4c697a7a617264563254657374526f757465723a20455850495245440000000081525060200191505060405180910390fd5b6127677f000000000000000000000000000000000000000000000000000000000000000089888880806020026020016040519081016040528093929190818152602001838360200280828437600081840152601f19601f82011690508083019250505050505050614651565b9150868260008151811061277757fe5b602002602001015111156127d6576040517f08c379a000000000000000000000000000000000000000000000000000000000815260040180806020018281038252602b8152602001806151a8602b913960400191505060405180910390fd5b61289b868660008181106127e657fe5b9050602002013573ffffffffffffffffffffffffffffffffffffffff16336128817f00000000000000000000000000000000000000000000000000000000000000008a8a600081811061283557fe5b9050602002013573ffffffffffffffffffffffffffffffffffffffff168b8b600181811061285f57fe5b9050602002013573ffffffffffffffffffffffffffffffffffffffff1661403a565b8560008151811061288e57fe5b6020026020010151614195565b6128e782878780806020026020016040519081016040528093929190818152602001838360200280828437600081840152601f19601f82011690508083019250505050505050866143a6565b509695505050505050565b7f000000000000000000000000000000000000000000000000000000000000000081565b60006129238484846148f1565b90509392505050565b600081428110156129a5576040517f08c379a000000000000000000000000000000000000000000000000000000000815260040180806020018281038252601c8152602001807f4c697a7a617264563254657374526f757465723a20455850495245440000000081525060200191505060405180910390fd5b6129d4887f00000000000000000000000000000000000000000000000000000000000000008989893089612b3c565b905080925050612a9c88858a73ffffffffffffffffffffffffffffffffffffffff166370a08231306040518263ffffffff1660e01b8152600401808273ffffffffffffffffffffffffffffffffffffffff1673ffffffffffffffffffffffffffffffffffffffff16815260200191505060206040518083038186803b158015612a5c57600080fd5b505afa158015612a70573d6000803e3d6000fd5b505050506040513d6020811015612a8657600080fd5b8101908080519060200190929190505050613a74565b7f000000000000000000000000000000000000000000000000000000000000000073ffffffffffffffffffffffffffffffffffffffff16632e1a7d4d836040518263ffffffff1660e01b815260040180828152602001915050600060405180830381600087803b158015612b0f57600080fd5b505af1158015612b23573d6000803e3d6000fd5b50505050612b318483613c50565b509695505050505050565b6000808242811015612bb6576040517f08c379a000000000000000000000000000000000000000000000000000000000815260040180806020018281038252601c8152602001807f4c697a7a617264563254657374526f757465723a20455850495245440000000081525060200191505060405180910390fd5b6000612be37f00000000000000000000000000000000000000000000000000000000000000008c8c61403a565b90508073ffffffffffffffffffffffffffffffffffffffff166323b872dd33838c6040518463ffffffff1660e01b8152600401808473ffffffffffffffffffffffffffffffffffffffff1673ffffffffffffffffffffffffffffffffffffffff1681526020018373ffffffffffffffffffffffffffffffffffffffff1673ffffffffffffffffffffffffffffffffffffffff1681526020018281526020019350505050602060405180830381600087803b158015612ca057600080fd5b505af1158015612cb4573d6000803e3d6000fd5b505050506040513d6020811015612cca57600080fd5b8101908080519060200190929190505050506000808273ffffffffffffffffffffffffffffffffffffffff166389afcb44896040518263ffffffff1660e01b8152600401808273ffffffffffffffffffffffffffffffffffffffff1673ffffffffffffffffffffffffffffffffffffffff1681526020019150506040805180830381600087803b158015612d5d57600080fd5b505af1158015612d71573d6000803e3d6000fd5b505050506040513d6040811015612d8757600080fd5b810190808051906020019092919080519060200190929190505050915091506000612db28e8e6149d5565b5090508073ffffffffffffffffffffffffffffffffffffffff168e73ffffffffffffffffffffffffffffffffffffffff1614612def578183612df2565b82825b80975081985050508a871015612e53576040517f08c379a000000000000000000000000000000000000000000000000000000000815260040180806020018281038252602a8152602001806151f4602a913960400191505060405180910390fd5b89861015612eac576040517f08c379a000000000000000000000000000000000000000000000000000000000815260040180806020018281038252602a8152602001806152d1602a913960400191505060405180910390fd5b505050505097509795505050505050565b7f000000000000000000000000000000000000000000000000000000000000000081565b6060612f0e7f00000000000000000000000000000000000000000000000000000000000000008484613edf565b905092915050565b6000806000612f667f00000000000000000000000000000000000000000000000000000000000000008e7f000000000000000000000000000000000000000000000000000000000000000061403a565b9050600087612f75578c612f97565b7fffffffffffffffffffffffffffffffffffffffffffffffffffffffffffffffff5b90508173ffffffffffffffffffffffffffffffffffffffff1663d505accf3330848d8c8c8c6040518863ffffffff1660e01b8152600401808873ffffffffffffffffffffffffffffffffffffffff1673ffffffffffffffffffffffffffffffffffffffff1681526020018773ffffffffffffffffffffffffffffffffffffffff1673ffffffffffffffffffffffffffffffffffffffff1681526020018681526020018581526020018460ff1660ff168152602001838152602001828152602001975050505050505050600060405180830381600087803b15801561307a57600080fd5b505af115801561308e573d6000803e3d6000fd5b505050506130a08e8e8e8e8e8e61129e565b809450819550505050509a509a98505050505050505050565b60008060008342811015613135576040517f08c379a000000000000000000000000000000000000000000000000000000000815260040180806020018281038252601c8152602001807f4c697a7a617264563254657374526f757465723a20455850495245440000000081525060200191505060405180910390fd5b6131438c8c8c8c8c8c614b2f565b809450819550505060006131787f00000000000000000000000000000000000000000000000000000000000000008e8e61403a565b90506131868d338388614195565b6131928c338387614195565b8073ffffffffffffffffffffffffffffffffffffffff16636a627842886040518263ffffffff1660e01b8152600401808273ffffffffffffffffffffffffffffffffffffffff1673ffffffffffffffffffffffffffffffffffffffff168152602001915050602060405180830381600087803b15801561321157600080fd5b505af1158015613225573d6000803e3d6000fd5b505050506040513d602081101561323b57600080fd5b810190808051906020019092919050505092505050985098509895505050505050565b600080600083428110156132da576040517f08c379a000000000000000000000000000000000000000000000000000000000815260040180806020018281038252601c8152602001807f4c697a7a617264563254657374526f757465723a20455850495245440000000081525060200191505060405180910390fd5b6133088a7f00000000000000000000000000000000000000000000000000000000000000008b348c8c614b2f565b8094508195505050600061335d7f00000000000000000000000000000000000000000000000000000000000000008c7f000000000000000000000000000000000000000000000000000000000000000061403a565b905061336b8b338388614195565b7f000000000000000000000000000000000000000000000000000000000000000073ffffffffffffffffffffffffffffffffffffffff1663d0e30db0856040518263ffffffff1660e01b81526004016000604051808303818588803b1580156133d357600080fd5b505af11580156133e7573d6000803e3d6000fd5b50505050507f000000000000000000000000000000000000000000000000000000000000000073ffffffffffffffffffffffffffffffffffffffff1663a9059cbb82866040518363ffffffff1660e01b8152600401808373ffffffffffffffffffffffffffffffffffffffff1673ffffffffffffffffffffffffffffffffffffffff16815260200182815260200192505050602060405180830381600087803b15801561349357600080fd5b505af11580156134a7573d6000803e3d6000fd5b505050506040513d60208110156134bd57600080fd5b81019080805190602001909291905050506134d457fe5b8073ffffffffffffffffffffffffffffffffffffffff16636a627842886040518263ffffffff1660e01b8152600401808273ffffffffffffffffffffffffffffffffffffffff1673ffffffffffffffffffffffffffffffffffffffff168152602001915050602060405180830381600087803b15801561355357600080fd5b505af1158015613567573d6000803e3d6000fd5b505050506040513d602081101561357d57600080fd5b81019080805190602001909291905050509250833411156135a5576135a433853403613c50565b5b505096509650969350505050565b6060814281101561362c576040517f08c379a000000000000000000000000000000000000000000000000000000000815260040180806020018281038252601c8152602001807f4c697a7a617264563254657374526f757465723a20455850495245440000000081525060200191505060405180910390fd5b7f000000000000000000000000000000000000000000000000000000000000000073ffffffffffffffffffffffffffffffffffffffff168686600081811061367057fe5b9050602002013573ffffffffffffffffffffffffffffffffffffffff1673ffffffffffffffffffffffffffffffffffffffff16146136f9576040517f08c379a00000000000000000000000000000000000000000000000000000000081526004018080602001828103825260218152602001806151d36021913960400191505060405180910390fd5b6137657f000000000000000000000000000000000000000000000000000000000000000088888880806020026020016040519081016040528093929190818152602001838360200280828437600081840152601f19601f82011690508083019250505050505050614651565b9150348260008151811061377557fe5b602002602001015111156137d4576040517f08c379a000000000000000000000000000000000000000000000000000000000815260040180806020018281038252602b8152602001806151a8602b913960400191505060405180910390fd5b7f000000000000000000000000000000000000000000000000000000000000000073ffffffffffffffffffffffffffffffffffffffff1663d0e30db08360008151811061381d57fe5b60200260200101516040518263ffffffff1660e01b81526004016000604051808303818588803b15801561385057600080fd5b505af1158015613864573d6000803e3d6000fd5b50505050507f000000000000000000000000000000000000000000000000000000000000000073ffffffffffffffffffffffffffffffffffffffff1663a9059cbb6139227f0000000000000000000000000000000000000000000000000000000000000000898960008181106138d657fe5b9050602002013573ffffffffffffffffffffffffffffffffffffffff168a8a600181811061390057fe5b9050602002013573ffffffffffffffffffffffffffffffffffffffff1661403a565b8460008151811061392f57fe5b60200260200101516040518363ffffffff1660e01b8152600401808373ffffffffffffffffffffffffffffffffffffffff1673ffffffffffffffffffffffffffffffffffffffff16815260200182815260200192505050602060405180830381600087803b1580156139a057600080fd5b505af11580156139b4573d6000803e3d6000fd5b505050506040513d60208110156139ca57600080fd5b81019080805190602001909291905050506139e157fe5b613a2d82878780806020026020016040519081016040528093929190818152602001838360200280828437600081840152601f19601f82011690508083019250505050505050866143a6565b81600081518110613a3a57fe5b6020026020010151341115613a6a57613a693383600081518110613a5a57fe5b60200260200101513403613c50565b5b5095945050505050565b600060608473ffffffffffffffffffffffffffffffffffffffff1663a9059cbb8585604051602401808373ffffffffffffffffffffffffffffffffffffffff1673ffffffffffffffffffffffffffffffffffffffff168152602001828152602001925050506040516020818303038152906040529060e01b6020820180517bffffffffffffffffffffffffffffffffffffffffffffffffffffffff83818316178352505050506040518082805190602001908083835b60208310613b4d5780518252602082019150602081019050602083039250613b2a565b6001836020036101000a0380198251168184511680821785525050505050509050019150506000604051808303816000865af19150503d8060008114613baf576040519150601f19603f3d011682016040523d82523d6000602084013e613bb4565b606091505b5091509150818015613bf45750600081511480613bf35750808060200190516020811015613be157600080fd5b81019080805190602001909291905050505b5b613c49576040517f08c379a000000000000000000000000000000000000000000000000000000000815260040180806020018281038252602d8152602001806153ab602d913960400191505060405180910390fd5b5050505050565b60008273ffffffffffffffffffffffffffffffffffffffff1682600067ffffffffffffffff81118015613c8257600080fd5b506040519080825280601f01601f191660200182016040528015613cb55781602001600182028036833780820191505090505b506040518082805190602001908083835b60208310613ce95780518252602082019150602081019050602083039250613cc6565b6001836020036101000a03801982511681845116808217855250505050505090500191505060006040518083038185875af1925050503d8060008114613d4b576040519150601f19603f3d011682016040523d82523d6000602084013e613d50565b606091505b5050905080613daa576040517f08c379a000000000000000000000000000000000000000000000000000000000815260040180806020018281038252603481526020018061524f6034913960400191505060405180910390fd5b505050565b6000808411613e09576040517f08c379a000000000000000000000000000000000000000000000000000000000815260040180806020018281038252602f81526020018061537c602f913960400191505060405180910390fd5b600083118015613e195750600082115b613e6e576040517f08c379a000000000000000000000000000000000000000000000000000000000815260040180806020018281038252602c8152602001806152a5602c913960400191505060405180910390fd5b6000613e856103e586614ee390919063ffffffff16565b90506000613e9c8483614ee390919063ffffffff16565b90506000613ec783613eb96103e889614ee390919063ffffffff16565b614f7890919063ffffffff16565b9050808281613ed257fe5b0493505050509392505050565b6060600282511015613f3c576040517f08c379a000000000000000000000000000000000000000000000000000000000815260040180806020018281038252602281526020018061532a6022913960400191505060405180910390fd5b815167ffffffffffffffff81118015613f5457600080fd5b50604051908082528060200260200182016040528015613f835781602001602082028036833780820191505090505b5090508281600081518110613f9457fe5b60200260200101818152505060005b600183510381101561403257600080613fe687868581518110613fc257fe5b6020026020010151876001870181518110613fd957fe5b6020026020010151614ffb565b91509150614008848481518110613ff957fe5b60200260200101518383613daf565b84600185018151811061401757fe5b60200260200101818152505050508080600101915050613fa3565b509392505050565b600080600061404985856149d5565b91509150858282604051602001808373ffffffffffffffffffffffffffffffffffffffff1673ffffffffffffffffffffffffffffffffffffffff1660601b81526014018273ffffffffffffffffffffffffffffffffffffffff1673ffffffffffffffffffffffffffffffffffffffff1660601b8152601401925050506040516020818303038152906040528051906020012060405160200180807fff000000000000000000000000000000000000000000000000000000000000008152506001018373ffffffffffffffffffffffffffffffffffffffff1673ffffffffffffffffffffffffffffffffffffffff1660601b8152601401828152602001807f96e8ac4277198ff8b6f785478aa9a39f403cb768dd02cbee326c3e7da348845f815250602001925050506040516020818303038152906040528051906020012060001c925050509392505050565b600060608573ffffffffffffffffffffffffffffffffffffffff166323b872dd868686604051602401808473ffffffffffffffffffffffffffffffffffffffff1673ffffffffffffffffffffffffffffffffffffffff1681526020018373ffffffffffffffffffffffffffffffffffffffff1673ffffffffffffffffffffffffffffffffffffffff16815260200182815260200193505050506040516020818303038152906040529060e01b6020820180517bffffffffffffffffffffffffffffffffffffffffffffffffffffffff83818316178352505050506040518082805190602001908083835b602083106142a2578051825260208201915060208101905060208303925061427f565b6001836020036101000a0380198251168184511680821785525050505050509050019150506000604051808303816000865af19150503d8060008114614304576040519150601f19603f3d011682016040523d82523d6000602084013e614309565b606091505b50915091508180156143495750600081511480614348575080806020019051602081101561433657600080fd5b81019080805190602001909291905050505b5b61439e576040517f08c379a000000000000000000000000000000000000000000000000000000000815260040180806020018281038252603181526020018061521e6031913960400191505060405180910390fd5b505050505050565b60005b600183510381101561464b576000808483815181106143c457fe5b60200260200101518560018501815181106143db57fe5b60200260200101519150915060006143f383836149d5565b509050600087600186018151811061440757fe5b602002602001015190506000808373ffffffffffffffffffffffffffffffffffffffff168673ffffffffffffffffffffffffffffffffffffffff161461444f57826000614453565b6000835b91509150600060028a5103881061446a57886144ac565b6144ab7f0000000000000000000000000000000000000000000000000000000000000000878c60028c018151811061449e57fe5b602002602001015161403a565b5b90506144d97f0000000000000000000000000000000000000000000000000000000000000000888861403a565b73ffffffffffffffffffffffffffffffffffffffff1663022c0d9f848484600067ffffffffffffffff8111801561450f57600080fd5b506040519080825280601f01601f1916602001820160405280156145425781602001600182028036833780820191505090505b506040518563ffffffff1660e01b8152600401808581526020018481526020018373ffffffffffffffffffffffffffffffffffffffff1673ffffffffffffffffffffffffffffffffffffffff16815260200180602001828103825283818151815260200191508051906020019080838360005b838110156145d05780820151818401526020810190506145b5565b50505050905090810190601f1680156145fd5780820380516001836020036101000a031916815260200191505b5095505050505050600060405180830381600087803b15801561461f57600080fd5b505af1158015614633573d6000803e3d6000fd5b505050505050505050505080806001019150506143a9565b50505050565b60606002825110156146ae576040517f08c379a000000000000000000000000000000000000000000000000000000000815260040180806020018281038252602281526020018061532a6022913960400191505060405180910390fd5b815167ffffffffffffffff811180156146c657600080fd5b506040519080825280602002602001820160405280156146f55781602001602082028036833780820191505090505b509050828160018351038151811061470957fe5b6020026020010181815250506000600183510390505b60008111156147ac5760008061475f8786600186038151811061473e57fe5b602002602001015187868151811061475257fe5b6020026020010151614ffb565b9150915061478184848151811061477257fe5b602002602001015183836147b4565b84600185038151811061479057fe5b602002602001018181525050505080806001900391505061471f565b509392505050565b600080841161480e576040517f08c379a000000000000000000000000000000000000000000000000000000000815260040180806020018281038252603081526020018061534c6030913960400191505060405180910390fd5b60008311801561481e5750600082115b614873576040517f08c379a000000000000000000000000000000000000000000000000000000000815260040180806020018281038252602c8152602001806152a5602c913960400191505060405180910390fd5b600061489c6103e861488e8787614ee390919063ffffffff16565b614ee390919063ffffffff16565b905060006148c76103e56148b9888761512490919063ffffffff16565b614ee390919063ffffffff16565b90506148e660018284816148d757fe5b04614f7890919063ffffffff16565b925050509392505050565b600080841161494b576040517f08c379a00000000000000000000000000000000000000000000000000000000081526004018080602001828103825260298152602001806153d86029913960400191505060405180910390fd5b60008311801561495b5750600082115b6149b0576040517f08c379a000000000000000000000000000000000000000000000000000000000815260040180806020018281038252602c8152602001806152a5602c913960400191505060405180910390fd5b826149c48386614ee390919063ffffffff16565b816149cb57fe5b0490509392505050565b6000808273ffffffffffffffffffffffffffffffffffffffff168473ffffffffffffffffffffffffffffffffffffffff161415614a5d576040517f08c379a00000000000000000000000000000000000000000000000000000000081526004018080602001828103825260298152602001806154016029913960400191505060405180910390fd5b8273ffffffffffffffffffffffffffffffffffffffff168473ffffffffffffffffffffffffffffffffffffffff1610614a97578284614a9a565b83835b8092508193505050600073ffffffffffffffffffffffffffffffffffffffff168273ffffffffffffffffffffffffffffffffffffffff161415614b28576040517f08c379a00000000000000000000000000000000000000000000000000000000081526004018080602001828103825260228152602001806152836022913960400191505060405180910390fd5b9250929050565b600080600073ffffffffffffffffffffffffffffffffffffffff167f000000000000000000000000000000000000000000000000000000000000000073ffffffffffffffffffffffffffffffffffffffff1663e6a439058a8a6040518363ffffffff1660e01b8152600401808373ffffffffffffffffffffffffffffffffffffffff1673ffffffffffffffffffffffffffffffffffffffff1681526020018273ffffffffffffffffffffffffffffffffffffffff1673ffffffffffffffffffffffffffffffffffffffff1681526020019250505060206040518083038186803b158015614c1b57600080fd5b505afa158015614c2f573d6000803e3d6000fd5b505050506040513d6020811015614c4557600080fd5b810190808051906020019092919050505073ffffffffffffffffffffffffffffffffffffffff161415614d82577f000000000000000000000000000000000000000000000000000000000000000073ffffffffffffffffffffffffffffffffffffffff1663c9c6539689896040518363ffffffff1660e01b8152600401808373ffffffffffffffffffffffffffffffffffffffff1673ffffffffffffffffffffffffffffffffffffffff1681526020018273ffffffffffffffffffffffffffffffffffffffff1673ffffffffffffffffffffffffffffffffffffffff16815260200192505050602060405180830381600087803b158015614d4557600080fd5b505af1158015614d59573d6000803e3d6000fd5b505050506040513d6020811015614d6f57600080fd5b8101908080519060200190929190505050505b600080614db07f00000000000000000000000000000000000000000000000000000000000000008b8b614ffb565b91509150600082148015614dc45750600081145b15614dd85787878094508195505050614ed6565b6000614de58984846148f1565b9050878111614e565785811015614e47576040517f08c379a000000000000000000000000000000000000000000000000000000000815260040180806020018281038252602a8152602001806152d1602a913960400191505060405180910390fd5b88818095508196505050614ed4565b6000614e638984866148f1565b905089811115614e6f57fe5b87811015614ec8576040517f08c379a000000000000000000000000000000000000000000000000000000000815260040180806020018281038252602a8152602001806151f4602a913960400191505060405180910390fd5b80898096508197505050505b505b5050965096945050505050565b600080821480614f005750828283850292508281614efd57fe5b04145b614f72576040517f08c379a00000000000000000000000000000000000000000000000000000000081526004018080602001828103825260148152602001807f64732d6d6174682d6d756c2d6f766572666c6f7700000000000000000000000081525060200191505060405180910390fd5b92915050565b6000828284019150811015614ff5576040517f08c379a00000000000000000000000000000000000000000000000000000000081526004018080602001828103825260148152602001807f64732d6d6174682d6164642d6f766572666c6f7700000000000000000000000081525060200191505060405180910390fd5b92915050565b600080600061500a85856149d5565b50905060008061501b88888861403a565b73ffffffffffffffffffffffffffffffffffffffff16630902f1ac6040518163ffffffff1660e01b815260040160606040518083038186803b15801561506057600080fd5b505afa158015615074573d6000803e3d6000fd5b505050506040513d606081101561508a57600080fd5b81019080805190602001909291908051906020019092919080519060200190929190505050506dffffffffffffffffffffffffffff1691506dffffffffffffffffffffffffffff1691508273ffffffffffffffffffffffffffffffffffffffff168773ffffffffffffffffffffffffffffffffffffffff161461510e578082615111565b81815b8095508196505050505050935093915050565b60008282840391508111156151a1576040517f08c379a00000000000000000000000000000000000000000000000000000000081526004018080602001828103825260158152602001807f64732d6d6174682d7375622d756e646572666c6f77000000000000000000000081525060200191505060405180910390fd5b9291505056fe4c697a7a617264563254657374526f757465723a204558434553534956455f494e5055545f414d4f554e544c697a7a617264563254657374526f757465723a20494e56414c49445f504154484c697a7a617264563254657374526f757465723a20494e53554646494349454e545f415f414d4f554e545472616e7366657248656c7065723a3a7472616e7366657246726f6d3a207472616e7366657246726f6d206661696c65645472616e7366657248656c7065723a3a736166655472616e736665724554483a20455448207472616e73666572206661696c65644c697a7a6172645632546573744c6962726172793a205a45524f5f414444524553534c697a7a6172645632546573744c6962726172793a20494e53554646494349454e545f4c49515549444954594c697a7a617264563254657374526f757465723a20494e53554646494349454e545f425f414d4f554e544c697a7a617264563254657374526f757465723a20494e53554646494349454e545f4f55545055545f414d4f554e544c697a7a6172645632546573744c6962726172793a20494e56414c49445f504154484c697a7a6172645632546573744c6962726172793a20494e53554646494349454e545f4f55545055545f414d4f554e544c697a7a6172645632546573744c6962726172793a20494e53554646494349454e545f494e5055545f414d4f554e545472616e7366657248656c7065723a3a736166655472616e736665723a207472616e73666572206661696c65644c697a7a6172645632546573744c6962726172793a20494e53554646494349454e545f414d4f554e544c697a7a6172645632546573744c6962726172793a204944454e544943414c5f414444524553534553a2646970667358221220eeaf28c2dca0493457fd197646e3b4f13a798a451859e161b20df6f4025d2b5464736f6c63430006060033",
  "immutableReferences": {
    "1644": [
      {
        "length": 32,
        "start": 5473
      },
      {
        "length": 32,
        "start": 5741
      },
      {
        "length": 32,
        "start": 6176
      },
      {
        "length": 32,
        "start": 6232
      },
      {
        "length": 32,
        "start": 6737
      },
      {
        "length": 32,
        "start": 7005
      },
      {
        "length": 32,
        "start": 7574
      },
      {
        "length": 32,
        "start": 7839
      },
      {
        "length": 32,
        "start": 8275
      },
      {
        "length": 32,
        "start": 9008
      },
      {
        "length": 32,
        "start": 9439
      },
      {
        "length": 32,
        "start": 9984
      },
      {
        "length": 32,
        "start": 10249
      },
      {
        "length": 32,
        "start": 11197
      },
      {
        "length": 32,
        "start": 11967
      },
      {
        "length": 32,
        "start": 12008
      },
      {
        "length": 32,
        "start": 12064
      },
      {
        "length": 32,
        "start": 12626
      },
      {
        "length": 32,
        "start": 13079
      },
      {
        "length": 32,
        "start": 14078
      },
      {
        "length": 32,
        "start": 14506
      },
      {
        "length": 32,
        "start": 17519
      },
      {
        "length": 32,
        "start": 17587
      },
      {
        "length": 32,
        "start": 19276
      },
      {
        "length": 32,
        "start": 19572
      },
      {
        "length": 32,
        "start": 19850
      }
    ],
    "1647": [
      {
        "length": 32,
        "start": 309
      },
      {
        "length": 32,
        "start": 4894
      },
      {
        "length": 32,
        "start": 4956
      },
      {
        "length": 32,
        "start": 5260
      },
      {
        "length": 32,
        "start": 5965
      },
      {
        "length": 32,
        "start": 7361
      },
      {
        "length": 32,
        "start": 8063
      },
      {
        "length": 32,
        "start": 8309
      },
      {
        "length": 32,
        "start": 8800
      },
      {
        "length": 32,
        "start": 9227
      },
      {
        "length": 32,
        "start": 9376
      },
      {
        "length": 32,
        "start": 10484
      },
      {
        "length": 32,
        "start": 10667
      },
      {
        "length": 32,
        "start": 10910
      },
      {
        "length": 32,
        "start": 12098
      },
      {
        "length": 32,
        "start": 13024
      },
      {
        "length": 32,
        "start": 13113
      },
      {
        "length": 32,
        "start": 13165
      },
      {
        "length": 32,
        "start": 13294
      },
      {
        "length": 32,
        "start": 13870
      },
      {
        "length": 32,
        "start": 14294
      },
      {
        "length": 32,
        "start": 14443
      }
    ]
  },
  "source": "pragma solidity =0.6.6;\r\n\r\nimport 'lizzardtest-v2-core/contracts/interfaces/ILizzardV2TestFactory.sol';\r\nimport '@uniswap/lib/contracts/libraries/TransferHelper.sol';\r\nimport './interfaces/ILizzardV2TestRouter02.sol';\r\nimport './libraries/LizzardV2TestLibrary.sol';\r\nimport './libraries/SafeMath.sol';\r\nimport './interfaces/IERC20.sol';\r\nimport './interfaces/IWETH.sol';\r\n\r\ncontract LizzardV2TestRouter02 is ILizzardV2TestRouter02 {\r\n    using SafeMath for uint;\r\n\r\n    address public immutable override factory;\r\n    address public immutable override WETH;\r\n\r\n    modifier ensure(uint deadline) {\r\n        require(deadline >= block.timestamp, 'LizzardV2TestRouter: EXPIRED');\r\n        _;\r\n    }\r\n\r\n    constructor(address _factory, address _WETH) public {\r\n        factory = _factory;\r\n        WETH = _WETH;\r\n    }\r\n\r\n    receive() external payable {\r\n        assert(msg.sender == WETH); // only accept ETH via fallback from the WETH contract\r\n    }\r\n\r\n    // **** ADD LIQUIDITY ****\r\n    function _addLiquidity(\r\n        address tokenA,\r\n        address tokenB,\r\n        uint amountADesired,\r\n        uint amountBDesired,\r\n        uint amountAMin,\r\n        uint amountBMin\r\n    ) internal virtual returns (uint amountA, uint amountB) {\r\n        // create the pair if it doesn't exist yet\r\n        if (ILizzardV2TestFactory(factory).getPair(tokenA, tokenB) == address(0)) {\r\n            ILizzardV2TestFactory(factory).createPair(tokenA, tokenB);\r\n        }\r\n        (uint reserveA, uint reserveB) = LizzardV2TestLibrary.getReserves(factory, tokenA, tokenB);\r\n        if (reserveA == 0 && reserveB == 0) {\r\n            (amountA, amountB) = (amountADesired, amountBDesired);\r\n        } else {\r\n            uint amountBOptimal = LizzardV2TestLibrary.quote(amountADesired, reserveA, reserveB);\r\n            if (amountBOptimal <= amountBDesired) {\r\n                require(amountBOptimal >= amountBMin, 'LizzardV2TestRouter: INSUFFICIENT_B_AMOUNT');\r\n                (amountA, amountB) = (amountADesired, amountBOptimal);\r\n            } else {\r\n                uint amountAOptimal = LizzardV2TestLibrary.quote(amountBDesired, reserveB, reserveA);\r\n                assert(amountAOptimal <= amountADesired);\r\n                require(amountAOptimal >= amountAMin, 'LizzardV2TestRouter: INSUFFICIENT_A_AMOUNT');\r\n                (amountA, amountB) = (amountAOptimal, amountBDesired);\r\n            }\r\n        }\r\n    }\r\n    function addLiquidity(\r\n        address tokenA,\r\n        address tokenB,\r\n        uint amountADesired,\r\n        uint amountBDesired,\r\n        uint amountAMin,\r\n        uint amountBMin,\r\n        address to,\r\n        uint deadline\r\n    ) external virtual override ensure(deadline) returns (uint amountA, uint amountB, uint liquidity) {\r\n        (amountA, amountB) = _addLiquidity(tokenA, tokenB, amountADesired, amountBDesired, amountAMin, amountBMin);\r\n        address pair = LizzardV2TestLibrary.pairFor(factory, tokenA, tokenB);\r\n        TransferHelper.safeTransferFrom(tokenA, msg.sender, pair, amountA);\r\n        TransferHelper.safeTransferFrom(tokenB, msg.sender, pair, amountB);\r\n        liquidity = ILizzardV2TestPair(pair).mint(to);\r\n    }\r\n    function addLiquidityETH(\r\n        address token,\r\n        uint amountTokenDesired,\r\n        uint amountTokenMin,\r\n        uint amountETHMin,\r\n        address to,\r\n        uint deadline\r\n    ) external virtual override payable ensure(deadline) returns (uint amountToken, uint amountETH, uint liquidity) {\r\n        (amountToken, amountETH) = _addLiquidity(\r\n            token,\r\n            WETH,\r\n            amountTokenDesired,\r\n            msg.value,\r\n            amountTokenMin,\r\n            amountETHMin\r\n        );\r\n        address pair = LizzardV2TestLibrary.pairFor(factory, token, WETH);\r\n        TransferHelper.safeTransferFrom(token, msg.sender, pair, amountToken);\r\n        IWETH(WETH).deposit{value: amountETH}();\r\n        assert(IWETH(WETH).transfer(pair, amountETH));\r\n        liquidity = ILizzardV2TestPair(pair).mint(to);\r\n        // refund dust eth, if any\r\n        if (msg.value > amountETH) TransferHelper.safeTransferETH(msg.sender, msg.value - amountETH);\r\n    }\r\n\r\n    // **** REMOVE LIQUIDITY ****\r\n    function removeLiquidity(\r\n        address tokenA,\r\n        address tokenB,\r\n        uint liquidity,\r\n        uint amountAMin,\r\n        uint amountBMin,\r\n        address to,\r\n        uint deadline\r\n    ) public virtual override ensure(deadline) returns (uint amountA, uint amountB) {\r\n        address pair = LizzardV2TestLibrary.pairFor(factory, tokenA, tokenB);\r\n        ILizzardV2TestPair(pair).transferFrom(msg.sender, pair, liquidity); // send liquidity to pair\r\n        (uint amount0, uint amount1) = ILizzardV2TestPair(pair).burn(to);\r\n        (address token0,) = LizzardV2TestLibrary.sortTokens(tokenA, tokenB);\r\n        (amountA, amountB) = tokenA == token0 ? (amount0, amount1) : (amount1, amount0);\r\n        require(amountA >= amountAMin, 'LizzardV2TestRouter: INSUFFICIENT_A_AMOUNT');\r\n        require(amountB >= amountBMin, 'LizzardV2TestRouter: INSUFFICIENT_B_AMOUNT');\r\n    }\r\n    function removeLiquidityETH(\r\n        address token,\r\n        uint liquidity,\r\n        uint amountTokenMin,\r\n        uint amountETHMin,\r\n        address to,\r\n        uint deadline\r\n    ) public virtual override ensure(deadline) returns (uint amountToken, uint amountETH) {\r\n        (amountToken, amountETH) = removeLiquidity(\r\n            token,\r\n            WETH,\r\n            liquidity,\r\n            amountTokenMin,\r\n            amountETHMin,\r\n            address(this),\r\n            deadline\r\n        );\r\n        TransferHelper.safeTransfer(token, to, amountToken);\r\n        IWETH(WETH).withdraw(amountETH);\r\n        TransferHelper.safeTransferETH(to, amountETH);\r\n    }\r\n    function removeLiquidityWithPermit(\r\n        address tokenA,\r\n        address tokenB,\r\n        uint liquidity,\r\n        uint amountAMin,\r\n        uint amountBMin,\r\n        address to,\r\n        uint deadline,\r\n        bool approveMax, uint8 v, bytes32 r, bytes32 s\r\n    ) external virtual override returns (uint amountA, uint amountB) {\r\n        address pair = LizzardV2TestLibrary.pairFor(factory, tokenA, tokenB);\r\n        uint value = approveMax ? uint(-1) : liquidity;\r\n        ILizzardV2TestPair(pair).permit(msg.sender, address(this), value, deadline, v, r, s);\r\n        (amountA, amountB) = removeLiquidity(tokenA, tokenB, liquidity, amountAMin, amountBMin, to, deadline);\r\n    }\r\n    function removeLiquidityETHWithPermit(\r\n        address token,\r\n        uint liquidity,\r\n        uint amountTokenMin,\r\n        uint amountETHMin,\r\n        address to,\r\n        uint deadline,\r\n        bool approveMax, uint8 v, bytes32 r, bytes32 s\r\n    ) external virtual override returns (uint amountToken, uint amountETH) {\r\n        address pair = LizzardV2TestLibrary.pairFor(factory, token, WETH);\r\n        uint value = approveMax ? uint(-1) : liquidity;\r\n        ILizzardV2TestPair(pair).permit(msg.sender, address(this), value, deadline, v, r, s);\r\n        (amountToken, amountETH) = removeLiquidityETH(token, liquidity, amountTokenMin, amountETHMin, to, deadline);\r\n    }\r\n\r\n    // **** REMOVE LIQUIDITY (supporting fee-on-transfer tokens) ****\r\n    function removeLiquidityETHSupportingFeeOnTransferTokens(\r\n        address token,\r\n        uint liquidity,\r\n        uint amountTokenMin,\r\n        uint amountETHMin,\r\n        address to,\r\n        uint deadline\r\n    ) public virtual override ensure(deadline) returns (uint amountETH) {\r\n        (, amountETH) = removeLiquidity(\r\n            token,\r\n            WETH,\r\n            liquidity,\r\n            amountTokenMin,\r\n            amountETHMin,\r\n            address(this),\r\n            deadline\r\n        );\r\n        TransferHelper.safeTransfer(token, to, IERC20(token).balanceOf(address(this)));\r\n        IWETH(WETH).withdraw(amountETH);\r\n        TransferHelper.safeTransferETH(to, amountETH);\r\n    }\r\n    function removeLiquidityETHWithPermitSupportingFeeOnTransferTokens(\r\n        address token,\r\n        uint liquidity,\r\n        uint amountTokenMin,\r\n        uint amountETHMin,\r\n        address to,\r\n        uint deadline,\r\n        bool approveMax, uint8 v, bytes32 r, bytes32 s\r\n    ) external virtual override returns (uint amountETH) {\r\n        address pair = LizzardV2TestLibrary.pairFor(factory, token, WETH);\r\n        uint value = approveMax ? uint(-1) : liquidity;\r\n        ILizzardV2TestPair(pair).permit(msg.sender, address(this), value, deadline, v, r, s);\r\n        amountETH = removeLiquidityETHSupportingFeeOnTransferTokens(\r\n            token, liquidity, amountTokenMin, amountETHMin, to, deadline\r\n        );\r\n    }\r\n\r\n    // **** SWAP ****\r\n    // requires the initial amount to have already been sent to the first pair\r\n    function _swap(uint[] memory amounts, address[] memory path, address _to) internal virtual {\r\n        for (uint i; i < path.length - 1; i++) {\r\n            (address input, address output) = (path[i], path[i + 1]);\r\n            (address token0,) = LizzardV2TestLibrary.sortTokens(input, output);\r\n            uint amountOut = amounts[i + 1];\r\n            (uint amount0Out, uint amount1Out) = input == token0 ? (uint(0), amountOut) : (amountOut, uint(0));\r\n            address to = i < path.length - 2 ? LizzardV2TestLibrary.pairFor(factory, output, path[i + 2]) : _to;\r\n            ILizzardV2TestPair(LizzardV2TestLibrary.pairFor(factory, input, output)).swap(\r\n                amount0Out, amount1Out, to, new bytes(0)\r\n            );\r\n        }\r\n    }\r\n    function swapExactTokensForTokens(\r\n        uint amountIn,\r\n        uint amountOutMin,\r\n        address[] calldata path,\r\n        address to,\r\n        uint deadline\r\n    ) external virtual override ensure(deadline) returns (uint[] memory amounts) {\r\n        amounts = LizzardV2TestLibrary.getAmountsOut(factory, amountIn, path);\r\n        require(amounts[amounts.length - 1] >= amountOutMin, 'LizzardV2TestRouter: INSUFFICIENT_OUTPUT_AMOUNT');\r\n        TransferHelper.safeTransferFrom(\r\n            path[0], msg.sender, LizzardV2TestLibrary.pairFor(factory, path[0], path[1]), amounts[0]\r\n        );\r\n        _swap(amounts, path, to);\r\n    }\r\n    function swapTokensForExactTokens(\r\n        uint amountOut,\r\n        uint amountInMax,\r\n        address[] calldata path,\r\n        address to,\r\n        uint deadline\r\n    ) external virtual override ensure(deadline) returns (uint[] memory amounts) {\r\n        amounts = LizzardV2TestLibrary.getAmountsIn(factory, amountOut, path);\r\n        require(amounts[0] <= amountInMax, 'LizzardV2TestRouter: EXCESSIVE_INPUT_AMOUNT');\r\n        TransferHelper.safeTransferFrom(\r\n            path[0], msg.sender, LizzardV2TestLibrary.pairFor(factory, path[0], path[1]), amounts[0]\r\n        );\r\n        _swap(amounts, path, to);\r\n    }\r\n    function swapExactETHForTokens(uint amountOutMin, address[] calldata path, address to, uint deadline)\r\n        external\r\n        virtual\r\n        override\r\n        payable\r\n        ensure(deadline)\r\n        returns (uint[] memory amounts)\r\n    {\r\n        require(path[0] == WETH, 'LizzardV2TestRouter: INVALID_PATH');\r\n        amounts = LizzardV2TestLibrary.getAmountsOut(factory, msg.value, path);\r\n        require(amounts[amounts.length - 1] >= amountOutMin, 'LizzardV2TestRouter: INSUFFICIENT_OUTPUT_AMOUNT');\r\n        IWETH(WETH).deposit{value: amounts[0]}();\r\n        assert(IWETH(WETH).transfer(LizzardV2TestLibrary.pairFor(factory, path[0], path[1]), amounts[0]));\r\n        _swap(amounts, path, to);\r\n    }\r\n    function swapTokensForExactETH(uint amountOut, uint amountInMax, address[] calldata path, address to, uint deadline)\r\n        external\r\n        virtual\r\n        override\r\n        ensure(deadline)\r\n        returns (uint[] memory amounts)\r\n    {\r\n        require(path[path.length - 1] == WETH, 'LizzardV2TestRouter: INVALID_PATH');\r\n        amounts = LizzardV2TestLibrary.getAmountsIn(factory, amountOut, path);\r\n        require(amounts[0] <= amountInMax, 'LizzardV2TestRouter: EXCESSIVE_INPUT_AMOUNT');\r\n        TransferHelper.safeTransferFrom(\r\n            path[0], msg.sender, LizzardV2TestLibrary.pairFor(factory, path[0], path[1]), amounts[0]\r\n        );\r\n        _swap(amounts, path, address(this));\r\n        IWETH(WETH).withdraw(amounts[amounts.length - 1]);\r\n        TransferHelper.safeTransferETH(to, amounts[amounts.length - 1]);\r\n    }\r\n    function swapExactTokensForETH(uint amountIn, uint amountOutMin, address[] calldata path, address to, uint deadline)\r\n        external\r\n        virtual\r\n        override\r\n        ensure(deadline)\r\n        returns (uint[] memory amounts)\r\n    {\r\n        require(path[path.length - 1] == WETH, 'LizzardV2TestRouter: INVALID_PATH');\r\n        amounts = LizzardV2TestLibrary.getAmountsOut(factory, amountIn, path);\r\n        require(amounts[amounts.length - 1] >= amountOutMin, 'LizzardV2TestRouter: INSUFFICIENT_OUTPUT_AMOUNT');\r\n        TransferHelper.safeTransferFrom(\r\n            path[0], msg.sender, LizzardV2TestLibrary.pairFor(factory, path[0], path[1]), amounts[0]\r\n        );\r\n        _swap(amounts, path, address(this));\r\n        IWETH(WETH).withdraw(amounts[amounts.length - 1]);\r\n        TransferHelper.safeTransferETH(to, amounts[amounts.length - 1]);\r\n    }\r\n    function swapETHForExactTokens(uint amountOut, address[] calldata path, address to, uint deadline)\r\n        external\r\n        virtual\r\n        override\r\n        payable\r\n        ensure(deadline)\r\n        returns (uint[] memory amounts)\r\n    {\r\n        require(path[0] == WETH, 'LizzardV2TestRouter: INVALID_PATH');\r\n        amounts = LizzardV2TestLibrary.getAmountsIn(factory, amountOut, path);\r\n        require(amounts[0] <= msg.value, 'LizzardV2TestRouter: EXCESSIVE_INPUT_AMOUNT');\r\n        IWETH(WETH).deposit{value: amounts[0]}();\r\n        assert(IWETH(WETH).transfer(LizzardV2TestLibrary.pairFor(factory, path[0], path[1]), amounts[0]));\r\n        _swap(amounts, path, to);\r\n        // refund dust eth, if any\r\n        if (msg.value > amounts[0]) TransferHelper.safeTransferETH(msg.sender, msg.value - amounts[0]);\r\n    }\r\n\r\n    // **** SWAP (supporting fee-on-transfer tokens) ****\r\n    // requires the initial amount to have already been sent to the first pair\r\n    function _swapSupportingFeeOnTransferTokens(address[] memory path, address _to) internal virtual {\r\n        for (uint i; i < path.length - 1; i++) {\r\n            (address input, address output) = (path[i], path[i + 1]);\r\n            (address token0,) = LizzardV2TestLibrary.sortTokens(input, output);\r\n            ILizzardV2TestPair pair = ILizzardV2TestPair(LizzardV2TestLibrary.pairFor(factory, input, output));\r\n            uint amountInput;\r\n            uint amountOutput;\r\n            { // scope to avoid stack too deep errors\r\n            (uint reserve0, uint reserve1,) = pair.getReserves();\r\n            (uint reserveInput, uint reserveOutput) = input == token0 ? (reserve0, reserve1) : (reserve1, reserve0);\r\n            amountInput = IERC20(input).balanceOf(address(pair)).sub(reserveInput);\r\n            amountOutput = LizzardV2TestLibrary.getAmountOut(amountInput, reserveInput, reserveOutput);\r\n            }\r\n            (uint amount0Out, uint amount1Out) = input == token0 ? (uint(0), amountOutput) : (amountOutput, uint(0));\r\n            address to = i < path.length - 2 ? LizzardV2TestLibrary.pairFor(factory, output, path[i + 2]) : _to;\r\n            pair.swap(amount0Out, amount1Out, to, new bytes(0));\r\n        }\r\n    }\r\n    /*\r\n    function swapExactTokensForTokensSupportingFeeOnTransferTokens(\r\n        uint amountIn,\r\n        uint amountOutMin,\r\n        address[] calldata path,\r\n        address to,\r\n        uint deadline\r\n    ) external virtual override ensure(deadline) {\r\n        TransferHelper.safeTransferFrom(\r\n            path[0], msg.sender, LizzardV2TestLibrary.pairFor(factory, path[0], path[1]), amountIn\r\n        );\r\n        uint balanceBefore = IERC20(path[path.length - 1]).balanceOf(to);\r\n        _swapSupportingFeeOnTransferTokens(path, to);\r\n        require(\r\n            IERC20(path[path.length - 1]).balanceOf(to).sub(balanceBefore) >= amountOutMin,\r\n            'LizzardV2TestRouter: INSUFFICIENT_OUTPUT_AMOUNT'\r\n        );\r\n    }\r\n    function swapExactETHForTokensSupportingFeeOnTransferTokens(\r\n        uint amountOutMin,\r\n        address[] calldata path,\r\n        address to,\r\n        uint deadline\r\n    )\r\n        external\r\n        virtual\r\n        override\r\n        payable\r\n        ensure(deadline)\r\n    {\r\n        require(path[0] == WETH, 'LizzardV2TestRouter: INVALID_PATH');\r\n        uint amountIn = msg.value;\r\n        IWETH(WETH).deposit{value: amountIn}();\r\n        assert(IWETH(WETH).transfer(LizzardV2TestLibrary.pairFor(factory, path[0], path[1]), amountIn));\r\n        uint balanceBefore = IERC20(path[path.length - 1]).balanceOf(to);\r\n        _swapSupportingFeeOnTransferTokens(path, to);\r\n        require(\r\n            IERC20(path[path.length - 1]).balanceOf(to).sub(balanceBefore) >= amountOutMin,\r\n            'LizzardV2TestRouter: INSUFFICIENT_OUTPUT_AMOUNT'\r\n        );\r\n    }\r\n    function swapExactTokensForETHSupportingFeeOnTransferTokens(\r\n        uint amountIn,\r\n        uint amountOutMin,\r\n        address[] calldata path,\r\n        address to,\r\n        uint deadline\r\n    )\r\n        external\r\n        virtual\r\n        override\r\n        ensure(deadline)\r\n    {\r\n        require(path[path.length - 1] == WETH, 'LizzardV2TestRouter: INVALID_PATH');\r\n        TransferHelper.safeTransferFrom(\r\n            path[0], msg.sender, LizzardV2TestLibrary.pairFor(factory, path[0], path[1]), amountIn\r\n        );\r\n        _swapSupportingFeeOnTransferTokens(path, address(this));\r\n        uint amountOut = IERC20(WETH).balanceOf(address(this));\r\n        require(amountOut >= amountOutMin, 'LizzardV2TestRouter: INSUFFICIENT_OUTPUT_AMOUNT');\r\n        IWETH(WETH).withdraw(amountOut);\r\n        TransferHelper.safeTransferETH(to, amountOut);\r\n    }\r\n*/\r\n    // **** LIBRARY FUNCTIONS ****\r\n    function quote(uint amountA, uint reserveA, uint reserveB) public pure virtual override returns (uint amountB) {\r\n        return LizzardV2TestLibrary.quote(amountA, reserveA, reserveB);\r\n    }\r\n\r\n    function getAmountOut(uint amountIn, uint reserveIn, uint reserveOut)\r\n        public\r\n        pure\r\n        virtual\r\n        override\r\n        returns (uint amountOut)\r\n    {\r\n        return LizzardV2TestLibrary.getAmountOut(amountIn, reserveIn, reserveOut);\r\n    }\r\n\r\n    function getAmountIn(uint amountOut, uint reserveIn, uint reserveOut)\r\n        public\r\n        pure\r\n        virtual\r\n        override\r\n        returns (uint amountIn)\r\n    {\r\n        return LizzardV2TestLibrary.getAmountIn(amountOut, reserveIn, reserveOut);\r\n    }\r\n\r\n    function getAmountsOut(uint amountIn, address[] memory path)\r\n        public\r\n        view\r\n        virtual\r\n        override\r\n        returns (uint[] memory amounts)\r\n    {\r\n        return LizzardV2TestLibrary.getAmountsOut(factory, amountIn, path);\r\n    }\r\n\r\n    function getAmountsIn(uint amountOut, address[] memory path)\r\n        public\r\n        view\r\n        virtual\r\n        override\r\n        returns (uint[] memory amounts)\r\n    {\r\n        return LizzardV2TestLibrary.getAmountsIn(factory, amountOut, path);\r\n    }\r\n}\r\n",
  "sourcePath": "C:/Users/venisk plex/VSCodeProjects/uniswap/periphery/contracts/LizzardV2TestRouter02.sol",
  "compiler": {
    "name": "solc",
    "version": "0.6.6+commit.6c089d02.Emscripten.clang"
  },
  "schemaVersion": "3.4.0",
  "updatedAt": "2021-05-24T17:37:38.365Z",
  "devdoc": {
    "methods": {}
  },
  "userdoc": {
    "methods": {}
  }
}